{
  "contractName": "Token",
  "abi": [
    {
      "inputs": [],
      "stateMutability": "nonpayable",
      "type": "constructor"
    },
    {
      "anonymous": false,
      "inputs": [
        {
          "indexed": true,
          "internalType": "address",
          "name": "owner",
          "type": "address"
        },
        {
          "indexed": true,
          "internalType": "address",
          "name": "spender",
          "type": "address"
        },
        {
          "indexed": false,
          "internalType": "uint256",
          "name": "value",
          "type": "uint256"
        }
      ],
      "name": "Approval",
      "type": "event"
    },
    {
      "anonymous": false,
      "inputs": [
        {
          "indexed": false,
          "internalType": "address",
          "name": "recipient",
          "type": "address"
        },
        {
          "indexed": false,
          "internalType": "uint256",
          "name": "amount",
          "type": "uint256"
        }
      ],
      "name": "Mint",
      "type": "event"
    },
    {
      "anonymous": false,
      "inputs": [
        {
          "indexed": true,
          "internalType": "address",
          "name": "from",
          "type": "address"
        },
        {
          "indexed": true,
          "internalType": "address",
          "name": "to",
          "type": "address"
        },
        {
          "indexed": false,
          "internalType": "uint256",
          "name": "value",
          "type": "uint256"
        }
      ],
      "name": "Transfer",
      "type": "event"
    },
    {
      "inputs": [
        {
          "internalType": "address",
          "name": "owner",
          "type": "address"
        },
        {
          "internalType": "address",
          "name": "spender",
          "type": "address"
        }
      ],
      "name": "allowance",
      "outputs": [
        {
          "internalType": "uint256",
          "name": "",
          "type": "uint256"
        }
      ],
      "stateMutability": "view",
      "type": "function",
      "constant": true
    },
    {
      "inputs": [
        {
          "internalType": "address",
          "name": "spender",
          "type": "address"
        },
        {
          "internalType": "uint256",
          "name": "amount",
          "type": "uint256"
        }
      ],
      "name": "approve",
      "outputs": [
        {
          "internalType": "bool",
          "name": "",
          "type": "bool"
        }
      ],
      "stateMutability": "nonpayable",
      "type": "function"
    },
    {
      "inputs": [
        {
          "internalType": "address",
          "name": "account",
          "type": "address"
        }
      ],
      "name": "balanceOf",
      "outputs": [
        {
          "internalType": "uint256",
          "name": "",
          "type": "uint256"
        }
      ],
      "stateMutability": "view",
      "type": "function",
      "constant": true
    },
    {
      "inputs": [],
      "name": "decimals",
      "outputs": [
        {
          "internalType": "uint8",
          "name": "",
          "type": "uint8"
        }
      ],
      "stateMutability": "view",
      "type": "function",
      "constant": true
    },
    {
      "inputs": [
        {
          "internalType": "address",
          "name": "spender",
          "type": "address"
        },
        {
          "internalType": "uint256",
          "name": "subtractedValue",
          "type": "uint256"
        }
      ],
      "name": "decreaseAllowance",
      "outputs": [
        {
          "internalType": "bool",
          "name": "",
          "type": "bool"
        }
      ],
      "stateMutability": "nonpayable",
      "type": "function"
    },
    {
      "inputs": [
        {
          "internalType": "address",
          "name": "spender",
          "type": "address"
        },
        {
          "internalType": "uint256",
          "name": "addedValue",
          "type": "uint256"
        }
      ],
      "name": "increaseAllowance",
      "outputs": [
        {
          "internalType": "bool",
          "name": "",
          "type": "bool"
        }
      ],
      "stateMutability": "nonpayable",
      "type": "function"
    },
    {
      "inputs": [],
      "name": "name",
      "outputs": [
        {
          "internalType": "string",
          "name": "",
          "type": "string"
        }
      ],
      "stateMutability": "view",
      "type": "function",
      "constant": true
    },
    {
      "inputs": [],
      "name": "symbol",
      "outputs": [
        {
          "internalType": "string",
          "name": "",
          "type": "string"
        }
      ],
      "stateMutability": "view",
      "type": "function",
      "constant": true
    },
    {
      "inputs": [],
      "name": "totalSupply",
      "outputs": [
        {
          "internalType": "uint256",
          "name": "",
          "type": "uint256"
        }
      ],
      "stateMutability": "view",
      "type": "function",
      "constant": true
    },
    {
      "inputs": [
        {
          "internalType": "address",
          "name": "recipient",
          "type": "address"
        },
        {
          "internalType": "uint256",
          "name": "amount",
          "type": "uint256"
        }
      ],
      "name": "transfer",
      "outputs": [
        {
          "internalType": "bool",
          "name": "",
          "type": "bool"
        }
      ],
      "stateMutability": "nonpayable",
      "type": "function"
    },
    {
      "inputs": [
        {
          "internalType": "address",
          "name": "sender",
          "type": "address"
        },
        {
          "internalType": "address",
          "name": "recipient",
          "type": "address"
        },
        {
          "internalType": "uint256",
          "name": "amount",
          "type": "uint256"
        }
      ],
      "name": "transferFrom",
      "outputs": [
        {
          "internalType": "bool",
          "name": "",
          "type": "bool"
        }
      ],
      "stateMutability": "nonpayable",
      "type": "function"
    },
    {
      "stateMutability": "payable",
      "type": "receive",
      "payable": true
    },
    {
      "inputs": [],
      "name": "initialize",
      "outputs": [],
      "stateMutability": "nonpayable",
      "type": "function"
    },
    {
      "inputs": [],
      "name": "getOwner",
      "outputs": [
        {
          "internalType": "address payable",
          "name": "",
          "type": "address"
        }
      ],
      "stateMutability": "view",
      "type": "function",
      "constant": true
    },
    {
      "inputs": [],
      "name": "getEthBalance",
      "outputs": [
        {
          "internalType": "uint256",
          "name": "",
          "type": "uint256"
        }
      ],
      "stateMutability": "view",
      "type": "function",
      "constant": true
    }
  ],
  "bytecode": "0x60806040523480156200001157600080fd5b50600060019054906101000a900460ff166200003c5760008054906101000a900460ff16156200004d565b6200004c6200010960201b60201c565b5b6200008f576040517f08c379a00000000000000000000000000000000000000000000000000000000081526004016200008690620001c1565b60405180910390fd5b60008060019054906101000a900460ff161590508015620000e0576001600060016101000a81548160ff02191690831515021790555060016000806101000a81548160ff0219169083151502179055505b8015620001025760008060016101000a81548160ff0219169083151502179055505b50620001e3565b600062000121306200012760201b62000a9d1760201c565b15905090565b600080823b905060008111915050919050565b600082825260208201905092915050565b7f496e697469616c697a61626c653a20636f6e747261637420697320616c72656160008201527f647920696e697469616c697a6564000000000000000000000000000000000000602082015250565b6000620001a9602e836200013a565b9150620001b6826200014b565b604082019050919050565b60006020820190508181036000830152620001dc816200019a565b9050919050565b611c6680620001f36000396000f3fe6080604052600436106100e15760003560e01c806370ed0ada1161007f57806395d89b411161005957806395d89b41146102d8578063a457c2d714610303578063a9059cbb14610340578063dd62ed3e1461037d576100f1565b806370ed0ada1461026b5780638129fc1c14610296578063893d20e8146102ad576100f1565b806323b872dd116100bb57806323b872dd14610189578063313ce567146101c657806339509351146101f157806370a082311461022e576100f1565b806306fdde03146100f6578063095ea7b31461012157806318160ddd1461015e576100f1565b366100f1576100ef346103ba565b005b600080fd5b34801561010257600080fd5b5061010b610400565b60405161011891906112f6565b60405180910390f35b34801561012d57600080fd5b50610148600480360381019061014391906113b1565b610492565b604051610155919061140c565b60405180910390f35b34801561016a57600080fd5b506101736104b0565b6040516101809190611436565b60405180910390f35b34801561019557600080fd5b506101b060048036038101906101ab9190611451565b6104ba565b6040516101bd919061140c565b60405180910390f35b3480156101d257600080fd5b506101db6105b2565b6040516101e891906114c0565b60405180910390f35b3480156101fd57600080fd5b50610218600480360381019061021391906113b1565b6105bb565b604051610225919061140c565b60405180910390f35b34801561023a57600080fd5b50610255600480360381019061025091906114db565b610667565b6040516102629190611436565b60405180910390f35b34801561027757600080fd5b506102806106b0565b60405161028d9190611436565b60405180910390f35b3480156102a257600080fd5b506102ab6106b8565b005b3480156102b957600080fd5b506102c2610851565b6040516102cf9190611529565b60405180910390f35b3480156102e457600080fd5b506102ed61087b565b6040516102fa91906112f6565b60405180910390f35b34801561030f57600080fd5b5061032a600480360381019061032591906113b1565b61090d565b604051610337919061140c565b60405180910390f35b34801561034c57600080fd5b50610367600480360381019061036291906113b1565b6109f8565b604051610374919061140c565b60405180910390f35b34801561038957600080fd5b506103a4600480360381019061039f9190611544565b610a16565b6040516103b19190611436565b60405180910390f35b6103c43282610ab0565b7f0f6798a560793a54c3bcfe86a93cde1e73087d944c0ea20544137d412139688532826040516103f5929190611593565b60405180910390a150565b60606036805461040f906115eb565b80601f016020809104026020016040519081016040528092919081815260200182805461043b906115eb565b80156104885780601f1061045d57610100808354040283529160200191610488565b820191906000526020600020905b81548152906001019060200180831161046b57829003601f168201915b5050505050905090565b60006104a661049f610c11565b8484610c19565b6001905092915050565b6000603554905090565b60006104c7848484610de4565b6000603460008673ffffffffffffffffffffffffffffffffffffffff1673ffffffffffffffffffffffffffffffffffffffff1681526020019081526020016000206000610512610c11565b73ffffffffffffffffffffffffffffffffffffffff1673ffffffffffffffffffffffffffffffffffffffff16815260200190815260200160002054905082811015610592576040517f08c379a00000000000000000000000000000000000000000000000000000000081526004016105899061168f565b60405180910390fd5b6105a68561059e610c11565b858403610c19565b60019150509392505050565b60006012905090565b600061065d6105c8610c11565b8484603460006105d6610c11565b73ffffffffffffffffffffffffffffffffffffffff1673ffffffffffffffffffffffffffffffffffffffff16815260200190815260200160002060008873ffffffffffffffffffffffffffffffffffffffff1673ffffffffffffffffffffffffffffffffffffffff1681526020019081526020016000205461065891906116de565b610c19565b6001905092915050565b6000603360008373ffffffffffffffffffffffffffffffffffffffff1673ffffffffffffffffffffffffffffffffffffffff168152602001908152602001600020549050919050565b600047905090565b600060019054906101000a900460ff166106e05760008054906101000a900460ff16156106e9565b6106e8611068565b5b610728576040517f08c379a000000000000000000000000000000000000000000000000000000000815260040161071f906117a6565b60405180910390fd5b60008060019054906101000a900460ff161590508015610778576001600060016101000a81548160ff02191690831515021790555060016000806101000a81548160ff0219169083151502179055505b6107ec6040518060400160405280600581526020017f546f6b656e0000000000000000000000000000000000000000000000000000008152506040518060400160405280600381526020017f544f4b0000000000000000000000000000000000000000000000000000000000815250611079565b33606560006101000a81548173ffffffffffffffffffffffffffffffffffffffff021916908373ffffffffffffffffffffffffffffffffffffffff160217905550801561084e5760008060016101000a81548160ff0219169083151502179055505b50565b6000606560009054906101000a900473ffffffffffffffffffffffffffffffffffffffff16905090565b60606037805461088a906115eb565b80601f01602080910402602001604051908101604052809291908181526020018280546108b6906115eb565b80156109035780601f106108d857610100808354040283529160200191610903565b820191906000526020600020905b8154815290600101906020018083116108e657829003601f168201915b5050505050905090565b6000806034600061091c610c11565b73ffffffffffffffffffffffffffffffffffffffff1673ffffffffffffffffffffffffffffffffffffffff16815260200190815260200160002060008573ffffffffffffffffffffffffffffffffffffffff1673ffffffffffffffffffffffffffffffffffffffff168152602001908152602001600020549050828110156109d9576040517f08c379a00000000000000000000000000000000000000000000000000000000081526004016109d090611838565b60405180910390fd5b6109ed6109e4610c11565b85858403610c19565b600191505092915050565b6000610a0c610a05610c11565b8484610de4565b6001905092915050565b6000603460008473ffffffffffffffffffffffffffffffffffffffff1673ffffffffffffffffffffffffffffffffffffffff16815260200190815260200160002060008373ffffffffffffffffffffffffffffffffffffffff1673ffffffffffffffffffffffffffffffffffffffff16815260200190815260200160002054905092915050565b600080823b905060008111915050919050565b600073ffffffffffffffffffffffffffffffffffffffff168273ffffffffffffffffffffffffffffffffffffffff161415610b20576040517f08c379a0000000000000000000000000000000000000000000000000000000008152600401610b17906118a4565b60405180910390fd5b610b2c600083836110de565b8060356000828254610b3e91906116de565b9250508190555080603360008473ffffffffffffffffffffffffffffffffffffffff1673ffffffffffffffffffffffffffffffffffffffff1681526020019081526020016000206000828254610b9491906116de565b925050819055508173ffffffffffffffffffffffffffffffffffffffff16600073ffffffffffffffffffffffffffffffffffffffff167fddf252ad1be2c89b69c2b068fc378daa952ba7f163c4a11628f55a4df523b3ef83604051610bf99190611436565b60405180910390a3610c0d600083836110e3565b5050565b600033905090565b600073ffffffffffffffffffffffffffffffffffffffff168373ffffffffffffffffffffffffffffffffffffffff161415610c89576040517f08c379a0000000000000000000000000000000000000000000000000000000008152600401610c8090611936565b60405180910390fd5b600073ffffffffffffffffffffffffffffffffffffffff168273ffffffffffffffffffffffffffffffffffffffff161415610cf9576040517f08c379a0000000000000000000000000000000000000000000000000000000008152600401610cf0906119c8565b60405180910390fd5b80603460008573ffffffffffffffffffffffffffffffffffffffff1673ffffffffffffffffffffffffffffffffffffffff16815260200190815260200160002060008473ffffffffffffffffffffffffffffffffffffffff1673ffffffffffffffffffffffffffffffffffffffff168152602001908152602001600020819055508173ffffffffffffffffffffffffffffffffffffffff168373ffffffffffffffffffffffffffffffffffffffff167f8c5be1e5ebec7d5bd14f71427d1e84f3dd0314c0f7b2291e5b200ac8c7c3b92583604051610dd79190611436565b60405180910390a3505050565b600073ffffffffffffffffffffffffffffffffffffffff168373ffffffffffffffffffffffffffffffffffffffff161415610e54576040517f08c379a0000000000000000000000000000000000000000000000000000000008152600401610e4b90611a5a565b60405180910390fd5b600073ffffffffffffffffffffffffffffffffffffffff168273ffffffffffffffffffffffffffffffffffffffff161415610ec4576040517f08c379a0000000000000000000000000000000000000000000000000000000008152600401610ebb90611aec565b60405180910390fd5b610ecf8383836110de565b6000603360008573ffffffffffffffffffffffffffffffffffffffff1673ffffffffffffffffffffffffffffffffffffffff16815260200190815260200160002054905081811015610f56576040517f08c379a0000000000000000000000000000000000000000000000000000000008152600401610f4d90611b7e565b60405180910390fd5b818103603360008673ffffffffffffffffffffffffffffffffffffffff1673ffffffffffffffffffffffffffffffffffffffff1681526020019081526020016000208190555081603360008573ffffffffffffffffffffffffffffffffffffffff1673ffffffffffffffffffffffffffffffffffffffff1681526020019081526020016000206000828254610feb91906116de565b925050819055508273ffffffffffffffffffffffffffffffffffffffff168473ffffffffffffffffffffffffffffffffffffffff167fddf252ad1be2c89b69c2b068fc378daa952ba7f163c4a11628f55a4df523b3ef8460405161104f9190611436565b60405180910390a36110628484846110e3565b50505050565b600061107330610a9d565b15905090565b600060019054906101000a900460ff166110c8576040517f08c379a00000000000000000000000000000000000000000000000000000000081526004016110bf90611c10565b60405180910390fd5b6110d06110e8565b6110da8282611139565b5050565b505050565b505050565b600060019054906101000a900460ff16611137576040517f08c379a000000000000000000000000000000000000000000000000000000000815260040161112e90611c10565b60405180910390fd5b565b600060019054906101000a900460ff16611188576040517f08c379a000000000000000000000000000000000000000000000000000000000815260040161117f90611c10565b60405180910390fd5b816036908051906020019061119e9291906111ba565b5080603790805190602001906111b59291906111ba565b505050565b8280546111c6906115eb565b90600052602060002090601f0160209004810192826111e8576000855561122f565b82601f1061120157805160ff191683800117855561122f565b8280016001018555821561122f579182015b8281111561122e578251825591602001919060010190611213565b5b50905061123c9190611240565b5090565b5b80821115611259576000816000905550600101611241565b5090565b600081519050919050565b600082825260208201905092915050565b60005b8381101561129757808201518184015260208101905061127c565b838111156112a6576000848401525b50505050565b6000601f19601f8301169050919050565b60006112c88261125d565b6112d28185611268565b93506112e2818560208601611279565b6112eb816112ac565b840191505092915050565b6000602082019050818103600083015261131081846112bd565b905092915050565b600080fd5b600073ffffffffffffffffffffffffffffffffffffffff82169050919050565b60006113488261131d565b9050919050565b6113588161133d565b811461136357600080fd5b50565b6000813590506113758161134f565b92915050565b6000819050919050565b61138e8161137b565b811461139957600080fd5b50565b6000813590506113ab81611385565b92915050565b600080604083850312156113c8576113c7611318565b5b60006113d685828601611366565b92505060206113e78582860161139c565b9150509250929050565b60008115159050919050565b611406816113f1565b82525050565b600060208201905061142160008301846113fd565b92915050565b6114308161137b565b82525050565b600060208201905061144b6000830184611427565b92915050565b60008060006060848603121561146a57611469611318565b5b600061147886828701611366565b935050602061148986828701611366565b925050604061149a8682870161139c565b9150509250925092565b600060ff82169050919050565b6114ba816114a4565b82525050565b60006020820190506114d560008301846114b1565b92915050565b6000602082840312156114f1576114f0611318565b5b60006114ff84828501611366565b91505092915050565b60006115138261131d565b9050919050565b61152381611508565b82525050565b600060208201905061153e600083018461151a565b92915050565b6000806040838503121561155b5761155a611318565b5b600061156985828601611366565b925050602061157a85828601611366565b9150509250929050565b61158d8161133d565b82525050565b60006040820190506115a86000830185611584565b6115b56020830184611427565b9392505050565b7f4e487b7100000000000000000000000000000000000000000000000000000000600052602260045260246000fd5b6000600282049050600182168061160357607f821691505b60208210811415611617576116166115bc565b5b50919050565b7f45524332303a207472616e7366657220616d6f756e742065786365656473206160008201527f6c6c6f77616e6365000000000000000000000000000000000000000000000000602082015250565b6000611679602883611268565b91506116848261161d565b604082019050919050565b600060208201905081810360008301526116a88161166c565b9050919050565b7f4e487b7100000000000000000000000000000000000000000000000000000000600052601160045260246000fd5b60006116e98261137b565b91506116f48361137b565b9250827fffffffffffffffffffffffffffffffffffffffffffffffffffffffffffffffff03821115611729576117286116af565b5b828201905092915050565b7f496e697469616c697a61626c653a20636f6e747261637420697320616c72656160008201527f647920696e697469616c697a6564000000000000000000000000000000000000602082015250565b6000611790602e83611268565b915061179b82611734565b604082019050919050565b600060208201905081810360008301526117bf81611783565b9050919050565b7f45524332303a2064656372656173656420616c6c6f77616e63652062656c6f7760008201527f207a65726f000000000000000000000000000000000000000000000000000000602082015250565b6000611822602583611268565b915061182d826117c6565b604082019050919050565b6000602082019050818103600083015261185181611815565b9050919050565b7f45524332303a206d696e7420746f20746865207a65726f206164647265737300600082015250565b600061188e601f83611268565b915061189982611858565b602082019050919050565b600060208201905081810360008301526118bd81611881565b9050919050565b7f45524332303a20617070726f76652066726f6d20746865207a65726f2061646460008201527f7265737300000000000000000000000000000000000000000000000000000000602082015250565b6000611920602483611268565b915061192b826118c4565b604082019050919050565b6000602082019050818103600083015261194f81611913565b9050919050565b7f45524332303a20617070726f766520746f20746865207a65726f20616464726560008201527f7373000000000000000000000000000000000000000000000000000000000000602082015250565b60006119b2602283611268565b91506119bd82611956565b604082019050919050565b600060208201905081810360008301526119e1816119a5565b9050919050565b7f45524332303a207472616e736665722066726f6d20746865207a65726f20616460008201527f6472657373000000000000000000000000000000000000000000000000000000602082015250565b6000611a44602583611268565b9150611a4f826119e8565b604082019050919050565b60006020820190508181036000830152611a7381611a37565b9050919050565b7f45524332303a207472616e7366657220746f20746865207a65726f206164647260008201527f6573730000000000000000000000000000000000000000000000000000000000602082015250565b6000611ad6602383611268565b9150611ae182611a7a565b604082019050919050565b60006020820190508181036000830152611b0581611ac9565b9050919050565b7f45524332303a207472616e7366657220616d6f756e742065786365656473206260008201527f616c616e63650000000000000000000000000000000000000000000000000000602082015250565b6000611b68602683611268565b9150611b7382611b0c565b604082019050919050565b60006020820190508181036000830152611b9781611b5b565b9050919050565b7f496e697469616c697a61626c653a20636f6e7472616374206973206e6f74206960008201527f6e697469616c697a696e67000000000000000000000000000000000000000000602082015250565b6000611bfa602b83611268565b9150611c0582611b9e565b604082019050919050565b60006020820190508181036000830152611c2981611bed565b905091905056fea2646970667358221220be8ac22b10307734fd67f604087b6ebc02651241330fcc2ed3cc6ba6bfc37c6e64736f6c634300080a0033",
  "immutableReferences": {},
  "source": "// SPDX-License-Identifier: MIT\npragma solidity ^0.8.0;\n\nimport \"@openzeppelin/contracts-upgradeable/token/ERC20/ERC20Upgradeable.sol\";\n\n// this is an implementation deriving from OpenZeppelin's ERC20 contract\ncontract Token is ERC20Upgradeable {\n  address payable owner;\n\n  // initializer modifier makes sure this function call only be called ONCE\n  function initialize() public initializer {\n    // call base contract initializer\n    ERC20Upgradeable.__ERC20_init(\"Token\", \"TOK\");\n    owner = payable(msg.sender);\n  }\n\n  /// @custom:oz-upgrades-unsafe-allow constructor\n  constructor() initializer {}\n\n  modifier onlyOwner {\n    require(\n      msg.sender == owner,\n      \"Only owner can call this function\"\n    );\n    _;\n  }\n\n  function getOwner() public view returns(address payable) {\n    return owner;\n  }\n\n  /**\n   * @dev Allows contract to receive ether payments. Mints an equivalent amount of tokens as deposited ether.\n   */\n  receive() external payable {\n    // POSSIBLE ERROR: https://docs.soliditylang.org/en/v0.8.10/contracts.html#receive-ether-function\n    // may run out of gas\n    _mintToken(msg.value);\n  }\n\n  /**\n   * @dev Mints `_amount` of tokens for the caller. This is only called after depositing eth, ensuring tokens are\n   * only minted in the case of an eth deposit.\n   */\n  function _mintToken(uint256 _amount) private {\n    // TODO: check event to make sure the receiver of tokens is correct\n    _mint(tx.origin, _amount);\n    emit Mint(tx.origin, _amount);\n  }\n\n  /**\n   * @dev Returns the ether balance of the contract\n   */\n  function getEthBalance() public view returns(uint256) {\n    return address(this).balance;\n  }\n\n  event Mint(address recipient, uint256 amount);\n}\n\n// TODO\n// - deploy to kovan\n// - need to return 90% of eth, not all of it\n// - upgrading - do we need owner variable for Token, if admin has owner?\n// - upgrading - do we need entirely new contract, or can we just have \"appended\" functions?\n// - upgrading - how to turn it off\n\n// UPGRADE CODE\n//   // user burns ERC20 token and get 90% of ETH back\n// function burnTokensAndRetrieveEth(uint256 _amount) external {\n//   // If we assume the ONLY way to get tokens is by depositing ETH, then no need to check deposit, just return 90% of ETH\n//   require(balanceOf(msg.sender) >= _amount, \"Not enough tokens\");\n\n//   // burn tokens from sender account\n//   _burn(msg.sender, _amount);\n//   // ufixed8x1 t = 9 / 10;\n\n//   // return 90% of ETH (for now just return full amount)\n//   _returnEth(payable(msg.sender), _amount);\n// }\n\n// /**\n// * @dev Returns `_amount` ether to `_to`. Note: can only be called when user has deposited some amount of tokens.\n// */\n// // do we need function to be payable?\n// function _returnEth(address payable _to, uint256 _amount) private {\n//   (bool sent,) = _to.call{value: _amount}(\"\");\n//   require(sent, \"Failed to send eth\");\n// }\n\n// things I'd like to understand:\n// - External means only accessed externally--does this refer to code or who can call it?\n// - to call a function method, do I need to use web3.eth.sendTransaction() or web3.eth.call()?? or can I just do\n// contract.method()? I think there is some shorthand here, with the truffle framework making the 3rd method default to\n// either a send() or a call() depending on if data is just read or written. It defaults to accounts[0] as the sender\n// If I were using raw web3.js I would do something like: contractInstance.method.sendTransaction(...) I think\n// - how to do events logging",
  "sourcePath": "/home/victor/acala/contracts/Token.sol",
  "compiler": {
    "name": "solc",
    "version": "0.8.10+commit.fc410830.Emscripten.clang"
  },
  "schemaVersion": "3.3.4",
  "updatedAt": "2021-12-25T22:58:42.718Z",
  "networkType": "ethereum",
  "devdoc": {
    "kind": "dev",
    "methods": {
      "allowance(address,address)": {
        "details": "See {IERC20-allowance}."
      },
      "approve(address,uint256)": {
        "details": "See {IERC20-approve}. Requirements: - `spender` cannot be the zero address."
      },
      "balanceOf(address)": {
        "details": "See {IERC20-balanceOf}."
      },
      "constructor": {
        "custom:oz-upgrades-unsafe-allow": "constructor"
      },
      "decimals()": {
        "details": "Returns the number of decimals used to get its user representation. For example, if `decimals` equals `2`, a balance of `505` tokens should be displayed to a user as `5.05` (`505 / 10 ** 2`). Tokens usually opt for a value of 18, imitating the relationship between Ether and Wei. This is the value {ERC20} uses, unless this function is overridden; NOTE: This information is only used for _display_ purposes: it in no way affects any of the arithmetic of the contract, including {IERC20-balanceOf} and {IERC20-transfer}."
      },
      "decreaseAllowance(address,uint256)": {
        "details": "Atomically decreases the allowance granted to `spender` by the caller. This is an alternative to {approve} that can be used as a mitigation for problems described in {IERC20-approve}. Emits an {Approval} event indicating the updated allowance. Requirements: - `spender` cannot be the zero address. - `spender` must have allowance for the caller of at least `subtractedValue`."
      },
      "getEthBalance()": {
        "details": "Returns the ether balance of the contract"
      },
      "increaseAllowance(address,uint256)": {
        "details": "Atomically increases the allowance granted to `spender` by the caller. This is an alternative to {approve} that can be used as a mitigation for problems described in {IERC20-approve}. Emits an {Approval} event indicating the updated allowance. Requirements: - `spender` cannot be the zero address."
      },
      "name()": {
        "details": "Returns the name of the token."
      },
      "symbol()": {
        "details": "Returns the symbol of the token, usually a shorter version of the name."
      },
      "totalSupply()": {
        "details": "See {IERC20-totalSupply}."
      },
      "transfer(address,uint256)": {
        "details": "See {IERC20-transfer}. Requirements: - `recipient` cannot be the zero address. - the caller must have a balance of at least `amount`."
      },
      "transferFrom(address,address,uint256)": {
        "details": "See {IERC20-transferFrom}. Emits an {Approval} event indicating the updated allowance. This is not required by the EIP. See the note at the beginning of {ERC20}. Requirements: - `sender` and `recipient` cannot be the zero address. - `sender` must have a balance of at least `amount`. - the caller must have allowance for ``sender``'s tokens of at least `amount`."
      }
    },
    "version": 1
  },
  "userdoc": {
    "kind": "user",
    "methods": {},
    "version": 1
  }
}