{
  "contractName": "TokenV2",
  "abi": [
    {
      "anonymous": false,
      "inputs": [
        {
          "indexed": true,
          "internalType": "address",
          "name": "owner",
          "type": "address"
        },
        {
          "indexed": true,
          "internalType": "address",
          "name": "spender",
          "type": "address"
        },
        {
          "indexed": false,
          "internalType": "uint256",
          "name": "value",
          "type": "uint256"
        }
      ],
      "name": "Approval",
      "type": "event"
    },
    {
      "anonymous": false,
      "inputs": [
        {
          "indexed": false,
          "internalType": "address",
          "name": "recipient",
          "type": "address"
        },
        {
          "indexed": false,
          "internalType": "uint256",
          "name": "amount",
          "type": "uint256"
        }
      ],
      "name": "Mint",
      "type": "event"
    },
    {
      "anonymous": false,
      "inputs": [
        {
          "indexed": true,
          "internalType": "address",
          "name": "from",
          "type": "address"
        },
        {
          "indexed": true,
          "internalType": "address",
          "name": "to",
          "type": "address"
        },
        {
          "indexed": false,
          "internalType": "uint256",
          "name": "value",
          "type": "uint256"
        }
      ],
      "name": "Transfer",
      "type": "event"
    },
    {
      "inputs": [
        {
          "internalType": "address",
          "name": "owner",
          "type": "address"
        },
        {
          "internalType": "address",
          "name": "spender",
          "type": "address"
        }
      ],
      "name": "allowance",
      "outputs": [
        {
          "internalType": "uint256",
          "name": "",
          "type": "uint256"
        }
      ],
      "stateMutability": "view",
      "type": "function",
      "constant": true
    },
    {
      "inputs": [
        {
          "internalType": "address",
          "name": "spender",
          "type": "address"
        },
        {
          "internalType": "uint256",
          "name": "amount",
          "type": "uint256"
        }
      ],
      "name": "approve",
      "outputs": [
        {
          "internalType": "bool",
          "name": "",
          "type": "bool"
        }
      ],
      "stateMutability": "nonpayable",
      "type": "function"
    },
    {
      "inputs": [
        {
          "internalType": "address",
          "name": "account",
          "type": "address"
        }
      ],
      "name": "balanceOf",
      "outputs": [
        {
          "internalType": "uint256",
          "name": "",
          "type": "uint256"
        }
      ],
      "stateMutability": "view",
      "type": "function",
      "constant": true
    },
    {
      "inputs": [],
      "name": "decimals",
      "outputs": [
        {
          "internalType": "uint8",
          "name": "",
          "type": "uint8"
        }
      ],
      "stateMutability": "view",
      "type": "function",
      "constant": true
    },
    {
      "inputs": [
        {
          "internalType": "address",
          "name": "spender",
          "type": "address"
        },
        {
          "internalType": "uint256",
          "name": "subtractedValue",
          "type": "uint256"
        }
      ],
      "name": "decreaseAllowance",
      "outputs": [
        {
          "internalType": "bool",
          "name": "",
          "type": "bool"
        }
      ],
      "stateMutability": "nonpayable",
      "type": "function"
    },
    {
      "inputs": [
        {
          "internalType": "address",
          "name": "spender",
          "type": "address"
        },
        {
          "internalType": "uint256",
          "name": "addedValue",
          "type": "uint256"
        }
      ],
      "name": "increaseAllowance",
      "outputs": [
        {
          "internalType": "bool",
          "name": "",
          "type": "bool"
        }
      ],
      "stateMutability": "nonpayable",
      "type": "function"
    },
    {
      "inputs": [],
      "name": "name",
      "outputs": [
        {
          "internalType": "string",
          "name": "",
          "type": "string"
        }
      ],
      "stateMutability": "view",
      "type": "function",
      "constant": true
    },
    {
      "inputs": [],
      "name": "symbol",
      "outputs": [
        {
          "internalType": "string",
          "name": "",
          "type": "string"
        }
      ],
      "stateMutability": "view",
      "type": "function",
      "constant": true
    },
    {
      "inputs": [],
      "name": "totalSupply",
      "outputs": [
        {
          "internalType": "uint256",
          "name": "",
          "type": "uint256"
        }
      ],
      "stateMutability": "view",
      "type": "function",
      "constant": true
    },
    {
      "inputs": [
        {
          "internalType": "address",
          "name": "recipient",
          "type": "address"
        },
        {
          "internalType": "uint256",
          "name": "amount",
          "type": "uint256"
        }
      ],
      "name": "transfer",
      "outputs": [
        {
          "internalType": "bool",
          "name": "",
          "type": "bool"
        }
      ],
      "stateMutability": "nonpayable",
      "type": "function"
    },
    {
      "inputs": [
        {
          "internalType": "address",
          "name": "sender",
          "type": "address"
        },
        {
          "internalType": "address",
          "name": "recipient",
          "type": "address"
        },
        {
          "internalType": "uint256",
          "name": "amount",
          "type": "uint256"
        }
      ],
      "name": "transferFrom",
      "outputs": [
        {
          "internalType": "bool",
          "name": "",
          "type": "bool"
        }
      ],
      "stateMutability": "nonpayable",
      "type": "function"
    },
    {
      "stateMutability": "payable",
      "type": "receive",
      "payable": true
    },
    {
      "inputs": [],
      "name": "getOwner",
      "outputs": [
        {
          "internalType": "address payable",
          "name": "",
          "type": "address"
        }
      ],
      "stateMutability": "view",
      "type": "function",
      "constant": true
    },
    {
      "inputs": [
        {
          "internalType": "uint256",
          "name": "_amount",
          "type": "uint256"
        }
      ],
      "name": "burnTokensAndRetrieveEth",
      "outputs": [],
      "stateMutability": "nonpayable",
      "type": "function"
    },
    {
      "inputs": [],
      "name": "getEthBalance",
      "outputs": [
        {
          "internalType": "uint256",
          "name": "",
          "type": "uint256"
        }
      ],
      "stateMutability": "view",
      "type": "function",
      "constant": true
    },
    {
      "inputs": [],
      "name": "killUpgradeFunctionality",
      "outputs": [],
      "stateMutability": "nonpayable",
      "type": "function"
    }
  ],
  "bytecode": "0x608060405234801561001057600080fd5b50611e92806100206000396000f3fe6080604052600436106100ec5760003560e01c806370ed0ada1161008a578063a457c2d711610059578063a457c2d71461030e578063a9059cbb1461034b578063b56e3d3214610388578063dd62ed3e146103b1576100fc565b806370ed0ada14610276578063893d20e8146102a157806395d89b41146102cc578063a2743d06146102f7576100fc565b806323b872dd116100c657806323b872dd14610194578063313ce567146101d157806339509351146101fc57806370a0823114610239576100fc565b806306fdde0314610101578063095ea7b31461012c57806318160ddd14610169576100fc565b366100fc576100fa346103ee565b005b600080fd5b34801561010d57600080fd5b50610116610434565b6040516101239190611311565b60405180910390f35b34801561013857600080fd5b50610153600480360381019061014e91906113cc565b6104c6565b6040516101609190611427565b60405180910390f35b34801561017557600080fd5b5061017e6104e4565b60405161018b9190611451565b60405180910390f35b3480156101a057600080fd5b506101bb60048036038101906101b6919061146c565b6104ee565b6040516101c89190611427565b60405180910390f35b3480156101dd57600080fd5b506101e66105e6565b6040516101f391906114db565b60405180910390f35b34801561020857600080fd5b50610223600480360381019061021e91906113cc565b6105ef565b6040516102309190611427565b60405180910390f35b34801561024557600080fd5b50610260600480360381019061025b91906114f6565b61069b565b60405161026d9190611451565b60405180910390f35b34801561028257600080fd5b5061028b6106e4565b6040516102989190611451565b60405180910390f35b3480156102ad57600080fd5b506102b66106ec565b6040516102c39190611544565b60405180910390f35b3480156102d857600080fd5b506102e1610716565b6040516102ee9190611311565b60405180910390f35b34801561030357600080fd5b5061030c6107a8565b005b34801561031a57600080fd5b50610335600480360381019061033091906113cc565b61083a565b6040516103429190611427565b60405180910390f35b34801561035757600080fd5b50610372600480360381019061036d91906113cc565b610925565b60405161037f9190611427565b60405180910390f35b34801561039457600080fd5b506103af60048036038101906103aa919061155f565b610943565b005b3480156103bd57600080fd5b506103d860048036038101906103d3919061158c565b6109a5565b6040516103e59190611451565b60405180910390f35b6103f83282610a2c565b7f0f6798a560793a54c3bcfe86a93cde1e73087d944c0ea20544137d412139688532826040516104299291906115db565b60405180910390a150565b60606036805461044390611633565b80601f016020809104026020016040519081016040528092919081815260200182805461046f90611633565b80156104bc5780601f10610491576101008083540402835291602001916104bc565b820191906000526020600020905b81548152906001019060200180831161049f57829003601f168201915b5050505050905090565b60006104da6104d3610b8d565b8484610b95565b6001905092915050565b6000603554905090565b60006104fb848484610d60565b6000603460008673ffffffffffffffffffffffffffffffffffffffff1673ffffffffffffffffffffffffffffffffffffffff1681526020019081526020016000206000610546610b8d565b73ffffffffffffffffffffffffffffffffffffffff1673ffffffffffffffffffffffffffffffffffffffff168152602001908152602001600020549050828110156105c6576040517f08c379a00000000000000000000000000000000000000000000000000000000081526004016105bd906116d7565b60405180910390fd5b6105da856105d2610b8d565b858403610b95565b60019150509392505050565b60006012905090565b60006106916105fc610b8d565b84846034600061060a610b8d565b73ffffffffffffffffffffffffffffffffffffffff1673ffffffffffffffffffffffffffffffffffffffff16815260200190815260200160002060008873ffffffffffffffffffffffffffffffffffffffff1673ffffffffffffffffffffffffffffffffffffffff1681526020019081526020016000205461068c9190611726565b610b95565b6001905092915050565b6000603360008373ffffffffffffffffffffffffffffffffffffffff1673ffffffffffffffffffffffffffffffffffffffff168152602001908152602001600020549050919050565b600047905090565b6000606560009054906101000a900473ffffffffffffffffffffffffffffffffffffffff16905090565b60606037805461072590611633565b80601f016020809104026020016040519081016040528092919081815260200182805461075190611633565b801561079e5780601f106107735761010080835404028352916020019161079e565b820191906000526020600020905b81548152906001019060200180831161078157829003601f168201915b5050505050905090565b606560009054906101000a900473ffffffffffffffffffffffffffffffffffffffff1673ffffffffffffffffffffffffffffffffffffffff163373ffffffffffffffffffffffffffffffffffffffff1614610838576040517f08c379a000000000000000000000000000000000000000000000000000000000815260040161082f906117ee565b60405180910390fd5b565b60008060346000610849610b8d565b73ffffffffffffffffffffffffffffffffffffffff1673ffffffffffffffffffffffffffffffffffffffff16815260200190815260200160002060008573ffffffffffffffffffffffffffffffffffffffff1673ffffffffffffffffffffffffffffffffffffffff16815260200190815260200160002054905082811015610906576040517f08c379a00000000000000000000000000000000000000000000000000000000081526004016108fd90611880565b60405180910390fd5b61091a610911610b8d565b85858403610b95565b600191505092915050565b6000610939610932610b8d565b8484610d60565b6001905092915050565b8061094d3361069b565b101561098e576040517f08c379a0000000000000000000000000000000000000000000000000000000008152600401610985906118ec565b60405180910390fd5b6109983382610fe4565b6109a233826111bd565b50565b6000603460008473ffffffffffffffffffffffffffffffffffffffff1673ffffffffffffffffffffffffffffffffffffffff16815260200190815260200160002060008373ffffffffffffffffffffffffffffffffffffffff1673ffffffffffffffffffffffffffffffffffffffff16815260200190815260200160002054905092915050565b600073ffffffffffffffffffffffffffffffffffffffff168273ffffffffffffffffffffffffffffffffffffffff161415610a9c576040517f08c379a0000000000000000000000000000000000000000000000000000000008152600401610a9390611958565b60405180910390fd5b610aa86000838361126e565b8060356000828254610aba9190611726565b9250508190555080603360008473ffffffffffffffffffffffffffffffffffffffff1673ffffffffffffffffffffffffffffffffffffffff1681526020019081526020016000206000828254610b109190611726565b925050819055508173ffffffffffffffffffffffffffffffffffffffff16600073ffffffffffffffffffffffffffffffffffffffff167fddf252ad1be2c89b69c2b068fc378daa952ba7f163c4a11628f55a4df523b3ef83604051610b759190611451565b60405180910390a3610b8960008383611273565b5050565b600033905090565b600073ffffffffffffffffffffffffffffffffffffffff168373ffffffffffffffffffffffffffffffffffffffff161415610c05576040517f08c379a0000000000000000000000000000000000000000000000000000000008152600401610bfc906119ea565b60405180910390fd5b600073ffffffffffffffffffffffffffffffffffffffff168273ffffffffffffffffffffffffffffffffffffffff161415610c75576040517f08c379a0000000000000000000000000000000000000000000000000000000008152600401610c6c90611a7c565b60405180910390fd5b80603460008573ffffffffffffffffffffffffffffffffffffffff1673ffffffffffffffffffffffffffffffffffffffff16815260200190815260200160002060008473ffffffffffffffffffffffffffffffffffffffff1673ffffffffffffffffffffffffffffffffffffffff168152602001908152602001600020819055508173ffffffffffffffffffffffffffffffffffffffff168373ffffffffffffffffffffffffffffffffffffffff167f8c5be1e5ebec7d5bd14f71427d1e84f3dd0314c0f7b2291e5b200ac8c7c3b92583604051610d539190611451565b60405180910390a3505050565b600073ffffffffffffffffffffffffffffffffffffffff168373ffffffffffffffffffffffffffffffffffffffff161415610dd0576040517f08c379a0000000000000000000000000000000000000000000000000000000008152600401610dc790611b0e565b60405180910390fd5b600073ffffffffffffffffffffffffffffffffffffffff168273ffffffffffffffffffffffffffffffffffffffff161415610e40576040517f08c379a0000000000000000000000000000000000000000000000000000000008152600401610e3790611ba0565b60405180910390fd5b610e4b83838361126e565b6000603360008573ffffffffffffffffffffffffffffffffffffffff1673ffffffffffffffffffffffffffffffffffffffff16815260200190815260200160002054905081811015610ed2576040517f08c379a0000000000000000000000000000000000000000000000000000000008152600401610ec990611c32565b60405180910390fd5b818103603360008673ffffffffffffffffffffffffffffffffffffffff1673ffffffffffffffffffffffffffffffffffffffff1681526020019081526020016000208190555081603360008573ffffffffffffffffffffffffffffffffffffffff1673ffffffffffffffffffffffffffffffffffffffff1681526020019081526020016000206000828254610f679190611726565b925050819055508273ffffffffffffffffffffffffffffffffffffffff168473ffffffffffffffffffffffffffffffffffffffff167fddf252ad1be2c89b69c2b068fc378daa952ba7f163c4a11628f55a4df523b3ef84604051610fcb9190611451565b60405180910390a3610fde848484611273565b50505050565b600073ffffffffffffffffffffffffffffffffffffffff168273ffffffffffffffffffffffffffffffffffffffff161415611054576040517f08c379a000000000000000000000000000000000000000000000000000000000815260040161104b90611cc4565b60405180910390fd5b6110608260008361126e565b6000603360008473ffffffffffffffffffffffffffffffffffffffff1673ffffffffffffffffffffffffffffffffffffffff168152602001908152602001600020549050818110156110e7576040517f08c379a00000000000000000000000000000000000000000000000000000000081526004016110de90611d56565b60405180910390fd5b818103603360008573ffffffffffffffffffffffffffffffffffffffff1673ffffffffffffffffffffffffffffffffffffffff16815260200190815260200160002081905550816035600082825461113f9190611d76565b92505081905550600073ffffffffffffffffffffffffffffffffffffffff168373ffffffffffffffffffffffffffffffffffffffff167fddf252ad1be2c89b69c2b068fc378daa952ba7f163c4a11628f55a4df523b3ef846040516111a49190611451565b60405180910390a36111b883600084611273565b505050565b60008273ffffffffffffffffffffffffffffffffffffffff16826040516111e390611ddb565b60006040518083038185875af1925050503d8060008114611220576040519150601f19603f3d011682016040523d82523d6000602084013e611225565b606091505b5050905080611269576040517f08c379a000000000000000000000000000000000000000000000000000000000815260040161126090611e3c565b60405180910390fd5b505050565b505050565b505050565b600081519050919050565b600082825260208201905092915050565b60005b838110156112b2578082015181840152602081019050611297565b838111156112c1576000848401525b50505050565b6000601f19601f8301169050919050565b60006112e382611278565b6112ed8185611283565b93506112fd818560208601611294565b611306816112c7565b840191505092915050565b6000602082019050818103600083015261132b81846112d8565b905092915050565b600080fd5b600073ffffffffffffffffffffffffffffffffffffffff82169050919050565b600061136382611338565b9050919050565b61137381611358565b811461137e57600080fd5b50565b6000813590506113908161136a565b92915050565b6000819050919050565b6113a981611396565b81146113b457600080fd5b50565b6000813590506113c6816113a0565b92915050565b600080604083850312156113e3576113e2611333565b5b60006113f185828601611381565b9250506020611402858286016113b7565b9150509250929050565b60008115159050919050565b6114218161140c565b82525050565b600060208201905061143c6000830184611418565b92915050565b61144b81611396565b82525050565b60006020820190506114666000830184611442565b92915050565b60008060006060848603121561148557611484611333565b5b600061149386828701611381565b93505060206114a486828701611381565b92505060406114b5868287016113b7565b9150509250925092565b600060ff82169050919050565b6114d5816114bf565b82525050565b60006020820190506114f060008301846114cc565b92915050565b60006020828403121561150c5761150b611333565b5b600061151a84828501611381565b91505092915050565b600061152e82611338565b9050919050565b61153e81611523565b82525050565b60006020820190506115596000830184611535565b92915050565b60006020828403121561157557611574611333565b5b6000611583848285016113b7565b91505092915050565b600080604083850312156115a3576115a2611333565b5b60006115b185828601611381565b92505060206115c285828601611381565b9150509250929050565b6115d581611358565b82525050565b60006040820190506115f060008301856115cc565b6115fd6020830184611442565b9392505050565b7f4e487b7100000000000000000000000000000000000000000000000000000000600052602260045260246000fd5b6000600282049050600182168061164b57607f821691505b6020821081141561165f5761165e611604565b5b50919050565b7f45524332303a207472616e7366657220616d6f756e742065786365656473206160008201527f6c6c6f77616e6365000000000000000000000000000000000000000000000000602082015250565b60006116c1602883611283565b91506116cc82611665565b604082019050919050565b600060208201905081810360008301526116f0816116b4565b9050919050565b7f4e487b7100000000000000000000000000000000000000000000000000000000600052601160045260246000fd5b600061173182611396565b915061173c83611396565b9250827fffffffffffffffffffffffffffffffffffffffffffffffffffffffffffffffff03821115611771576117706116f7565b5b828201905092915050565b7f4f6e6c79206f776e65722063616e2063616c6c20746869732066756e6374696f60008201527f6e00000000000000000000000000000000000000000000000000000000000000602082015250565b60006117d8602183611283565b91506117e38261177c565b604082019050919050565b60006020820190508181036000830152611807816117cb565b9050919050565b7f45524332303a2064656372656173656420616c6c6f77616e63652062656c6f7760008201527f207a65726f000000000000000000000000000000000000000000000000000000602082015250565b600061186a602583611283565b91506118758261180e565b604082019050919050565b600060208201905081810360008301526118998161185d565b9050919050565b7f4e6f7420656e6f75676820746f6b656e73000000000000000000000000000000600082015250565b60006118d6601183611283565b91506118e1826118a0565b602082019050919050565b60006020820190508181036000830152611905816118c9565b9050919050565b7f45524332303a206d696e7420746f20746865207a65726f206164647265737300600082015250565b6000611942601f83611283565b915061194d8261190c565b602082019050919050565b6000602082019050818103600083015261197181611935565b9050919050565b7f45524332303a20617070726f76652066726f6d20746865207a65726f2061646460008201527f7265737300000000000000000000000000000000000000000000000000000000602082015250565b60006119d4602483611283565b91506119df82611978565b604082019050919050565b60006020820190508181036000830152611a03816119c7565b9050919050565b7f45524332303a20617070726f766520746f20746865207a65726f20616464726560008201527f7373000000000000000000000000000000000000000000000000000000000000602082015250565b6000611a66602283611283565b9150611a7182611a0a565b604082019050919050565b60006020820190508181036000830152611a9581611a59565b9050919050565b7f45524332303a207472616e736665722066726f6d20746865207a65726f20616460008201527f6472657373000000000000000000000000000000000000000000000000000000602082015250565b6000611af8602583611283565b9150611b0382611a9c565b604082019050919050565b60006020820190508181036000830152611b2781611aeb565b9050919050565b7f45524332303a207472616e7366657220746f20746865207a65726f206164647260008201527f6573730000000000000000000000000000000000000000000000000000000000602082015250565b6000611b8a602383611283565b9150611b9582611b2e565b604082019050919050565b60006020820190508181036000830152611bb981611b7d565b9050919050565b7f45524332303a207472616e7366657220616d6f756e742065786365656473206260008201527f616c616e63650000000000000000000000000000000000000000000000000000602082015250565b6000611c1c602683611283565b9150611c2782611bc0565b604082019050919050565b60006020820190508181036000830152611c4b81611c0f565b9050919050565b7f45524332303a206275726e2066726f6d20746865207a65726f2061646472657360008201527f7300000000000000000000000000000000000000000000000000000000000000602082015250565b6000611cae602183611283565b9150611cb982611c52565b604082019050919050565b60006020820190508181036000830152611cdd81611ca1565b9050919050565b7f45524332303a206275726e20616d6f756e7420657863656564732062616c616e60008201527f6365000000000000000000000000000000000000000000000000000000000000602082015250565b6000611d40602283611283565b9150611d4b82611ce4565b604082019050919050565b60006020820190508181036000830152611d6f81611d33565b9050919050565b6000611d8182611396565b9150611d8c83611396565b925082821015611d9f57611d9e6116f7565b5b828203905092915050565b600081905092915050565b50565b6000611dc5600083611daa565b9150611dd082611db5565b600082019050919050565b6000611de682611db8565b9150819050919050565b7f4661696c656420746f2073656e64206574680000000000000000000000000000600082015250565b6000611e26601283611283565b9150611e3182611df0565b602082019050919050565b60006020820190508181036000830152611e5581611e19565b905091905056fea2646970667358221220cb43ea0dc997301396ccba5cf26c1685fac20a34bfd2e7fe2c4a34208068525664736f6c634300080a0033",
  "immutableReferences": {},
  "source": "// SPDX-License-Identifier: MIT\npragma solidity ^0.8.0;\n\nimport \"@openzeppelin/contracts-upgradeable/token/ERC20/ERC20Upgradeable.sol\";\n\n// this is an implementation deriving from OpenZeppelin's ERC20 contract\ncontract TokenV2 is ERC20Upgradeable {\n  address payable owner;\n\n  modifier onlyOwner {\n    require(\n      msg.sender == owner,\n      \"Only owner can call this function\"\n    );\n    _;\n  }\n\n  function getOwner() public view returns(address payable) {\n    return owner;\n  }\n\n  /**\n   * @dev Allows contract to receive ether payments. Mints an equivalent amount of tokens as deposited ether.\n   */\n  receive() external payable {\n    // POSSIBLE ERROR: https://docs.soliditylang.org/en/v0.8.10/contracts.html#receive-ether-function\n    // may run out of gas\n    _mintToken(msg.value);\n  }\n\n  /**\n   * @dev Mints `_amount` of tokens for the caller. This is only called after depositing eth, ensuring tokens are\n   * only minted in the case of an eth deposit.\n   */\n  function _mintToken(uint256 _amount) private {\n    // TODO: check event to make sure the receiver of tokens is correct\n    _mint(tx.origin, _amount);\n    emit Mint(tx.origin, _amount);\n  }\n\n    // user burns ERC20 token and get 90% of ETH back\n  function burnTokensAndRetrieveEth(uint256 _amount) external {\n    // If we assume the ONLY way to get tokens is by depositing ETH, then no need to check deposit, just return 90% of ETH\n    require(balanceOf(msg.sender) >= _amount, \"Not enough tokens\");\n\n    // burn tokens from sender account\n    _burn(msg.sender, _amount);\n    // ufixed8x1 t = 9 / 10;\n\n    // return 90% of ETH (for now just return full amount)\n    _returnEth(payable(msg.sender), _amount);\n  }\n\n  /**\n   * @dev Returns `_amount` ether to `_to`. Note: can only be called when user has deposited some amount of tokens.\n   */\n  // do we need function to be payable?\n  function _returnEth(address payable _to, uint256 _amount) private {\n    (bool sent,) = _to.call{value: _amount}(\"\");\n    require(sent, \"Failed to send eth\");\n  }\n\n  /**\n   * @dev Returns the ether balance of the contract\n   */\n  function getEthBalance() public view returns(uint256) {\n    return address(this).balance;\n  }\n\n  function killUpgradeFunctionality() public onlyOwner {\n    // turn off upgradability of contract\n  }\n\n  event Mint(address recipient, uint256 amount);\n}\n",
  "sourcePath": "/home/victor/acala/contracts/TokenV2.sol",
  "compiler": {
    "name": "solc",
    "version": "0.8.10+commit.fc410830.Emscripten.clang"
  },
  "schemaVersion": "3.3.4",
  "updatedAt": "2021-12-25T22:58:42.731Z",
  "networkType": "ethereum",
  "devdoc": {
    "kind": "dev",
    "methods": {
      "allowance(address,address)": {
        "details": "See {IERC20-allowance}."
      },
      "approve(address,uint256)": {
        "details": "See {IERC20-approve}. Requirements: - `spender` cannot be the zero address."
      },
      "balanceOf(address)": {
        "details": "See {IERC20-balanceOf}."
      },
      "decimals()": {
        "details": "Returns the number of decimals used to get its user representation. For example, if `decimals` equals `2`, a balance of `505` tokens should be displayed to a user as `5.05` (`505 / 10 ** 2`). Tokens usually opt for a value of 18, imitating the relationship between Ether and Wei. This is the value {ERC20} uses, unless this function is overridden; NOTE: This information is only used for _display_ purposes: it in no way affects any of the arithmetic of the contract, including {IERC20-balanceOf} and {IERC20-transfer}."
      },
      "decreaseAllowance(address,uint256)": {
        "details": "Atomically decreases the allowance granted to `spender` by the caller. This is an alternative to {approve} that can be used as a mitigation for problems described in {IERC20-approve}. Emits an {Approval} event indicating the updated allowance. Requirements: - `spender` cannot be the zero address. - `spender` must have allowance for the caller of at least `subtractedValue`."
      },
      "getEthBalance()": {
        "details": "Returns the ether balance of the contract"
      },
      "increaseAllowance(address,uint256)": {
        "details": "Atomically increases the allowance granted to `spender` by the caller. This is an alternative to {approve} that can be used as a mitigation for problems described in {IERC20-approve}. Emits an {Approval} event indicating the updated allowance. Requirements: - `spender` cannot be the zero address."
      },
      "name()": {
        "details": "Returns the name of the token."
      },
      "symbol()": {
        "details": "Returns the symbol of the token, usually a shorter version of the name."
      },
      "totalSupply()": {
        "details": "See {IERC20-totalSupply}."
      },
      "transfer(address,uint256)": {
        "details": "See {IERC20-transfer}. Requirements: - `recipient` cannot be the zero address. - the caller must have a balance of at least `amount`."
      },
      "transferFrom(address,address,uint256)": {
        "details": "See {IERC20-transferFrom}. Emits an {Approval} event indicating the updated allowance. This is not required by the EIP. See the note at the beginning of {ERC20}. Requirements: - `sender` and `recipient` cannot be the zero address. - `sender` must have a balance of at least `amount`. - the caller must have allowance for ``sender``'s tokens of at least `amount`."
      }
    },
    "version": 1
  },
  "userdoc": {
    "kind": "user",
    "methods": {},
    "version": 1
  }
}